:04000000D2EF07F044
:100F00000000000E0F01196F000E896E8468000E3C
:100F1000216F8A68000E046E000E036E040E026ECE
:100F20000C0E016E340EE82EFED7012EFCD7022ED9
:100F3000FAD7550E846E040E026E0C0E016E340E3E
:100F4000E82EFED7012EFCD7022EFAD7AA0E846E09
:100F5000034A042A04BEB6EF07F0045009E10A0E62
:100F6000035CD8A0B6EF07F0B8EF07F08EEF07F0FC
:100F7000000E846E8FA0BFEF07F0C1EF07F0C5EF42
:100F800007F0550E846EBAEF07F08FA2CAEF07F094
:100F9000CCEF07F0B8EF07F0AA0E846EBAEF07F0B7
:0A0FA00000EF00F0000181EF07F000
:020000040020DA
:10000000FFFFFFFFFFFFFFFFFFFFFFFFFFFFFFFF00
:020000040030CA
:0C000000FAFFFFFF9FFFFFDFFFFFFFFF85
:00000001FF
