:04000000D5EF07F041
:100F00000000000E0F01116F000E196F000E216F0F
:100F1000000E266F000E886EF00E896E000E8A6E2F
:100F2000000E8B6E000E836E0F0E846E000E856EAB
:100F3000000E866E8380660E866E080E026ECA0EE6
:100F4000E82EFED7022EFCD783908382080E026E15
:100F5000CA0EE82EFED7022EFCD7660E866E080E4D
:100F6000026ECA0EE82EFED7022EFCD7839283842F
:100F7000080E026ECA0EE82EFED7022EFCD7060E11
:100F8000866E080E026ECA0EE82EFED7022EFCD721
:100F9000000E836E080E026ECA0EE82EFED7022ED9
:100FA000FCD79AEF07F000EF00F0016A000181EF33
:020FB00007F048
:020000040020DA
:10000000FFFFFFFFFFFFFFFFFFFFFFFFFFFFFFFF00
:020000040030CA
:0C000000FAFFFFFF9FFFFFDFFFFFFFFF85
:00000001FF
